{
  "contractName": "APtoken",
  "abi": [
    {
      "constant": true,
      "inputs": [],
      "name": "name",
      "outputs": [
        {
          "name": "",
          "type": "string"
        }
      ],
      "payable": false,
      "stateMutability": "view",
      "type": "function",
      "signature": "0x06fdde03"
    },
    {
      "constant": true,
      "inputs": [],
      "name": "totalSupply",
      "outputs": [
        {
          "name": "",
          "type": "uint256"
        }
      ],
      "payable": false,
      "stateMutability": "view",
      "type": "function",
      "signature": "0x18160ddd"
    },
    {
      "constant": true,
      "inputs": [],
      "name": "ETH2Wei",
      "outputs": [
        {
          "name": "",
          "type": "uint256"
        }
      ],
      "payable": false,
      "stateMutability": "view",
      "type": "function",
      "signature": "0x4f0d7fd6"
    },
    {
      "constant": true,
      "inputs": [],
      "name": "ETH2APtoken",
      "outputs": [
        {
          "name": "",
          "type": "uint256"
        }
      ],
      "payable": false,
      "stateMutability": "view",
      "type": "function",
      "signature": "0x56756249"
    },
    {
      "constant": true,
      "inputs": [],
      "name": "standard",
      "outputs": [
        {
          "name": "",
          "type": "string"
        }
      ],
      "payable": false,
      "stateMutability": "view",
      "type": "function",
      "signature": "0x5a3b7e42"
    },
    {
      "constant": true,
      "inputs": [
        {
          "name": "",
          "type": "address"
        }
      ],
      "name": "balanceOf",
      "outputs": [
        {
          "name": "",
          "type": "uint256"
        }
      ],
      "payable": false,
      "stateMutability": "view",
      "type": "function",
      "signature": "0x70a08231"
    },
    {
      "constant": true,
      "inputs": [],
      "name": "symbol",
      "outputs": [
        {
          "name": "",
          "type": "string"
        }
      ],
      "payable": false,
      "stateMutability": "view",
      "type": "function",
      "signature": "0x95d89b41"
    },
    {
      "constant": true,
      "inputs": [
        {
          "name": "",
          "type": "address"
        },
        {
          "name": "",
          "type": "address"
        }
      ],
      "name": "allowance",
      "outputs": [
        {
          "name": "",
          "type": "uint256"
        }
      ],
      "payable": false,
      "stateMutability": "view",
      "type": "function",
      "signature": "0xdd62ed3e"
    },
    {
      "inputs": [
        {
          "name": "_initialSupply",
          "type": "uint256"
        },
        {
          "name": "_eth2token",
          "type": "uint256"
        }
      ],
      "payable": false,
      "stateMutability": "nonpayable",
      "type": "constructor",
      "signature": "constructor"
    },
    {
      "anonymous": false,
      "inputs": [
        {
          "indexed": true,
          "name": "_from",
          "type": "address"
        },
        {
          "indexed": true,
          "name": "_to",
          "type": "address"
        },
        {
          "indexed": false,
          "name": "_value",
          "type": "uint256"
        }
      ],
      "name": "Transfer",
      "type": "event",
      "signature": "0xddf252ad1be2c89b69c2b068fc378daa952ba7f163c4a11628f55a4df523b3ef"
    },
    {
      "anonymous": false,
      "inputs": [
        {
          "indexed": true,
          "name": "_owner",
          "type": "address"
        },
        {
          "indexed": true,
          "name": "_spender",
          "type": "address"
        },
        {
          "indexed": false,
          "name": "_value",
          "type": "uint256"
        }
      ],
      "name": "Approval",
      "type": "event",
      "signature": "0x8c5be1e5ebec7d5bd14f71427d1e84f3dd0314c0f7b2291e5b200ac8c7c3b925"
    },
    {
      "anonymous": false,
      "inputs": [
        {
          "indexed": true,
          "name": "_from",
          "type": "address"
        },
        {
          "indexed": true,
          "name": "_to",
          "type": "address"
        },
        {
          "indexed": false,
          "name": "_value",
          "type": "uint256"
        }
      ],
      "name": "ethTransfer",
      "type": "event",
      "signature": "0x12bbe25255d95dbf6fcd9861efe1252835b3c86971807649373ae81fc5c2f16d"
    },
    {
      "constant": false,
      "inputs": [
        {
          "name": "_to",
          "type": "address"
        },
        {
          "name": "_value",
          "type": "uint256"
        }
      ],
      "name": "transfer",
      "outputs": [
        {
          "name": "success",
          "type": "bool"
        }
      ],
      "payable": false,
      "stateMutability": "nonpayable",
      "type": "function",
      "signature": "0xa9059cbb"
    },
    {
      "constant": false,
      "inputs": [
        {
          "name": "_from",
          "type": "address"
        },
        {
          "name": "_to",
          "type": "address"
        },
        {
          "name": "_value",
          "type": "uint256"
        }
      ],
      "name": "transferFrom",
      "outputs": [
        {
          "name": "success",
          "type": "bool"
        }
      ],
      "payable": false,
      "stateMutability": "nonpayable",
      "type": "function",
      "signature": "0x23b872dd"
    },
    {
      "constant": false,
      "inputs": [
        {
          "name": "_spender",
          "type": "address"
        },
        {
          "name": "_value",
          "type": "uint256"
        }
      ],
      "name": "approve",
      "outputs": [
        {
          "name": "success",
          "type": "bool"
        }
      ],
      "payable": false,
      "stateMutability": "nonpayable",
      "type": "function",
      "signature": "0x095ea7b3"
    },
    {
      "constant": false,
      "inputs": [
        {
          "name": "_ethAmount",
          "type": "uint256"
        }
      ],
      "name": "buyToken",
      "outputs": [
        {
          "name": "",
          "type": "bool"
        }
      ],
      "payable": true,
      "stateMutability": "payable",
      "type": "function",
      "signature": "0x2d296bf1"
    }
  ],
  "bytecode": "0x60806040526040805190810160405280600881526020017f415020546f6b656e000000000000000000000000000000000000000000000000815250600090805190602001906200005192919062000204565b506040805190810160405280600381526020017f4150540000000000000000000000000000000000000000000000000000000000815250600190805190602001906200009f92919062000204565b506040805190810160405280601081526020017f415020546f6b656e2056657220312e300000000000000000000000000000000081525060029080519060200190620000ed92919062000204565b50348015620000fb57600080fd5b506040516040806200130a833981018060405260408110156200011d57600080fd5b81019080805190602001909291908051906020019092919050505033600660006101000a81548173ffffffffffffffffffffffffffffffffffffffff021916908373ffffffffffffffffffffffffffffffffffffffff1602179055508160076000600660009054906101000a900473ffffffffffffffffffffffffffffffffffffffff1673ffffffffffffffffffffffffffffffffffffffff1673ffffffffffffffffffffffffffffffffffffffff168152602001908152602001600020819055508160038190555080600481905550670de0b6b3a76400006005819055505050620002b3565b828054600181600116156101000203166002900490600052602060002090601f016020900481019282601f106200024757805160ff191683800117855562000278565b8280016001018555821562000278579182015b82811115620002775782518255916020019190600101906200025a565b5b5090506200028791906200028b565b5090565b620002b091905b80821115620002ac57600081600090555060010162000292565b5090565b90565b61104780620002c36000396000f3fe6080604052600436106100ba576000357c0100000000000000000000000000000000000000000000000000000000900463ffffffff16806306fdde03146100bf578063095ea7b31461014f57806318160ddd146101c257806323b872dd146101ed5780632d296bf1146102805780634f0d7fd6146102c657806356756249146102f15780635a3b7e421461031c57806370a08231146103ac57806395d89b4114610411578063a9059cbb146104a1578063dd62ed3e14610514575b600080fd5b3480156100cb57600080fd5b506100d4610599565b6040518080602001828103825283818151815260200191508051906020019080838360005b838110156101145780820151818401526020810190506100f9565b50505050905090810190601f1680156101415780820380516001836020036101000a031916815260200191505b509250505060405180910390f35b34801561015b57600080fd5b506101a86004803603604081101561017257600080fd5b81019080803573ffffffffffffffffffffffffffffffffffffffff16906020019092919080359060200190929190505050610637565b604051808215151515815260200191505060405180910390f35b3480156101ce57600080fd5b506101d7610729565b6040518082815260200191505060405180910390f35b3480156101f957600080fd5b506102666004803603606081101561021057600080fd5b81019080803573ffffffffffffffffffffffffffffffffffffffff169060200190929190803573ffffffffffffffffffffffffffffffffffffffff1690602001909291908035906020019092919050505061072f565b604051808215151515815260200191505060405180910390f35b6102ac6004803603602081101561029657600080fd5b810190808035906020019092919050505061099b565b604051808215151515815260200191505060405180910390f35b3480156102d257600080fd5b506102db610d3d565b6040518082815260200191505060405180910390f35b3480156102fd57600080fd5b50610306610d43565b6040518082815260200191505060405180910390f35b34801561032857600080fd5b50610331610d49565b6040518080602001828103825283818151815260200191508051906020019080838360005b83811015610371578082015181840152602081019050610356565b50505050905090810190601f16801561039e5780820380516001836020036101000a031916815260200191505b509250505060405180910390f35b3480156103b857600080fd5b506103fb600480360360208110156103cf57600080fd5b81019080803573ffffffffffffffffffffffffffffffffffffffff169060200190929190505050610de7565b6040518082815260200191505060405180910390f35b34801561041d57600080fd5b50610426610dff565b6040518080602001828103825283818151815260200191508051906020019080838360005b8381101561046657808201518184015260208101905061044b565b50505050905090810190601f1680156104935780820380516001836020036101000a031916815260200191505b509250505060405180910390f35b3480156104ad57600080fd5b506104fa600480360360408110156104c457600080fd5b81019080803573ffffffffffffffffffffffffffffffffffffffff16906020019092919080359060200190929190505050610e9d565b604051808215151515815260200191505060405180910390f35b34801561052057600080fd5b506105836004803603604081101561053757600080fd5b81019080803573ffffffffffffffffffffffffffffffffffffffff169060200190929190803573ffffffffffffffffffffffffffffffffffffffff169060200190929190505050610ff6565b6040518082815260200191505060405180910390f35b60008054600181600116156101000203166002900480601f01602080910402602001604051908101604052809291908181526020018280546001816001161561010002031660029004801561062f5780601f106106045761010080835404028352916020019161062f565b820191906000526020600020905b81548152906001019060200180831161061257829003601f168201915b505050505081565b600081600860003373ffffffffffffffffffffffffffffffffffffffff1673ffffffffffffffffffffffffffffffffffffffff16815260200190815260200160002060008573ffffffffffffffffffffffffffffffffffffffff1673ffffffffffffffffffffffffffffffffffffffff168152602001908152602001600020819055508273ffffffffffffffffffffffffffffffffffffffff163373ffffffffffffffffffffffffffffffffffffffff167f8c5be1e5ebec7d5bd14f71427d1e84f3dd0314c0f7b2291e5b200ac8c7c3b925846040518082815260200191505060405180910390a36001905092915050565b60035481565b600081600860008673ffffffffffffffffffffffffffffffffffffffff1673ffffffffffffffffffffffffffffffffffffffff16815260200190815260200160002060003373ffffffffffffffffffffffffffffffffffffffff1673ffffffffffffffffffffffffffffffffffffffff16815260200190815260200160002054101580156107fc575081600760008673ffffffffffffffffffffffffffffffffffffffff1673ffffffffffffffffffffffffffffffffffffffff1681526020019081526020016000205410155b151561080757600080fd5b81600760008673ffffffffffffffffffffffffffffffffffffffff1673ffffffffffffffffffffffffffffffffffffffff1681526020019081526020016000206000828254039250508190555081600760008573ffffffffffffffffffffffffffffffffffffffff1673ffffffffffffffffffffffffffffffffffffffff1681526020019081526020016000206000828254019250508190555081600860008673ffffffffffffffffffffffffffffffffffffffff1673ffffffffffffffffffffffffffffffffffffffff16815260200190815260200160002060003373ffffffffffffffffffffffffffffffffffffffff1673ffffffffffffffffffffffffffffffffffffffff168152602001908152602001600020600082825403925050819055508273ffffffffffffffffffffffffffffffffffffffff168473ffffffffffffffffffffffffffffffffffffffff167fddf252ad1be2c89b69c2b068fc378daa952ba7f163c4a11628f55a4df523b3ef846040518082815260200191505060405180910390a3600190509392505050565b6000600554820234141515610a18576040517f08c379a00000000000000000000000000000000000000000000000000000000081526004018080602001828103825260108152602001807f657468206e6f7420636f72726563742e0000000000000000000000000000000081525060200191505060405180910390fd5b600454820260076000600660009054906101000a900473ffffffffffffffffffffffffffffffffffffffff1673ffffffffffffffffffffffffffffffffffffffff1673ffffffffffffffffffffffffffffffffffffffff1681526020019081526020016000205410151515610af5576040517f08c379a000000000000000000000000000000000000000000000000000000000815260040180806020018281038252601c8152602001807f415020746f6b656e206e6f7420656e6f7567687420746f2073656c6c0000000081525060200191505060405180910390fd5b600660009054906101000a900473ffffffffffffffffffffffffffffffffffffffff1673ffffffffffffffffffffffffffffffffffffffff166108fc349081150290604051600060405180830381858888f19350505050158015610b5d573d6000803e3d6000fd5b50600660009054906101000a900473ffffffffffffffffffffffffffffffffffffffff1673ffffffffffffffffffffffffffffffffffffffff163373ffffffffffffffffffffffffffffffffffffffff167f12bbe25255d95dbf6fcd9861efe1252835b3c86971807649373ae81fc5c2f16d346040518082815260200191505060405180910390a3600454820260076000600660009054906101000a900473ffffffffffffffffffffffffffffffffffffffff1673ffffffffffffffffffffffffffffffffffffffff1673ffffffffffffffffffffffffffffffffffffffff168152602001908152602001600020600082825403925050819055506004548202600760003373ffffffffffffffffffffffffffffffffffffffff1673ffffffffffffffffffffffffffffffffffffffff168152602001908152602001600020600082825401925050819055503373ffffffffffffffffffffffffffffffffffffffff16600660009054906101000a900473ffffffffffffffffffffffffffffffffffffffff1673ffffffffffffffffffffffffffffffffffffffff167fddf252ad1be2c89b69c2b068fc378daa952ba7f163c4a11628f55a4df523b3ef60045485026040518082815260200191505060405180910390a360019050919050565b60055481565b60045481565b60028054600181600116156101000203166002900480601f016020809104026020016040519081016040528092919081815260200182805460018160011615610100020316600290048015610ddf5780601f10610db457610100808354040283529160200191610ddf565b820191906000526020600020905b815481529060010190602001808311610dc257829003601f168201915b505050505081565b60076020528060005260406000206000915090505481565b60018054600181600116156101000203166002900480601f016020809104026020016040519081016040528092919081815260200182805460018160011615610100020316600290048015610e955780601f10610e6a57610100808354040283529160200191610e95565b820191906000526020600020905b815481529060010190602001808311610e7857829003601f168201915b505050505081565b600081600760003373ffffffffffffffffffffffffffffffffffffffff1673ffffffffffffffffffffffffffffffffffffffff1681526020019081526020016000205410151515610eed57600080fd5b81600760003373ffffffffffffffffffffffffffffffffffffffff1673ffffffffffffffffffffffffffffffffffffffff1681526020019081526020016000206000828254039250508190555081600760008573ffffffffffffffffffffffffffffffffffffffff1673ffffffffffffffffffffffffffffffffffffffff168152602001908152602001600020600082825401925050819055508273ffffffffffffffffffffffffffffffffffffffff163373ffffffffffffffffffffffffffffffffffffffff167fddf252ad1be2c89b69c2b068fc378daa952ba7f163c4a11628f55a4df523b3ef846040518082815260200191505060405180910390a36001905092915050565b600860205281600052604060002060205280600052604060002060009150915050548156fea165627a7a723058206a6650171fd24548a39880b775da71b1da13dd002f657383fe47072046bc65f40029",
  "source": "pragma solidity >0.4.99 <0.6.0;\n\ncontract APtoken {\n  // Name\n  string public name = 'AP Token';\n\n  // Symbol\n  string public symbol = 'APT';\n\n  // Standard\n  string public standard = 'AP Token Ver 1.0';\n  // Constructor\n  // Set the total number of token\n  // Read the total number of token\n  uint256 public totalSupply;\n\n  //1 eth = ? ETH2APtoken\n  uint256 public ETH2APtoken;\n  uint256 public ETH2Wei;\n\n  //token owner\n  address payable tokenOwner;\n\n\n\n  event Transfer(\n    address indexed _from,\n    address indexed _to,\n    uint256 _value\n    );\n\n  event Approval(\n    address indexed _owner,\n    address indexed _spender,\n    uint256 _value);\n\n  event ethTransfer(\n    address indexed _from,\n    address indexed _to,\n    uint256 _value\n    );\n\n  mapping(address => uint256) public balanceOf;\n\n  mapping(address => mapping(address => uint256)) public allowance;\n\n  constructor(uint256 _initialSupply, uint256 _eth2token) public {\n    tokenOwner = msg.sender;\n    balanceOf[tokenOwner] = _initialSupply;\n    totalSupply = _initialSupply;\n    ETH2APtoken = _eth2token;\n    ETH2Wei = 10 ** 18;\n\n  }\n\n  modifier onlyTokenOwner () {\n        require(msg.sender == tokenOwner, 'only token Oowner have right to it.');\n        _;\n  }\n\n  function transfer(address _to, uint256 _value) public returns (bool success){\n    require(balanceOf[msg.sender] >= _value);\n    balanceOf[msg.sender]-= _value;\n    balanceOf[_to] += _value;\n    emit Transfer(msg.sender,_to,_value);\n    return true;\n  }\n\n  // Delegated Transfer\n\n  function transferFrom(address _from, address _to, uint256 _value) public returns(bool success) {\n    require(allowance[_from][msg.sender] >= _value && balanceOf[_from] >= _value);\n    balanceOf[_from] -= _value;\n    balanceOf[_to] += _value;\n    allowance[_from][msg.sender] -= _value;\n    emit Transfer(_from,_to,_value);\n    return true;\n  }\n\n  function approve(address _spender, uint256 _value) public returns(bool success) {\n    allowance[msg.sender][_spender] = _value;\n    emit Approval(msg.sender,_spender,_value);\n    return true;\n  }\n\n\n\n  function buyToken(uint _ethAmount) payable public returns(bool) {\n      require(msg.value ==  _ethAmount * ETH2Wei, 'eth not correct.');\n      require(balanceOf[tokenOwner] >= _ethAmount * ETH2APtoken, 'AP token not enought to sell');\n      tokenOwner.transfer(msg.value);\n      emit ethTransfer(msg.sender, tokenOwner, msg.value);\n      balanceOf[tokenOwner] -= _ethAmount * ETH2APtoken;\n      balanceOf[msg.sender] += _ethAmount * ETH2APtoken;\n      emit Transfer(tokenOwner, msg.sender, _ethAmount * ETH2APtoken);\n      return true;\n\n  }\n\n}\n",
  "sourcePath": "/Users/karenwang/Desktop/BlockChain/Ethereum/NCT_Project_Course/NTU_Project/PARK_modify/contracts/APtoken.sol",
  "compiler": {
    "name": "solc",
    "version": "0.5.0+commit.1d4f565a.Emscripten.clang"
  },
  "schemaVersion": "3.0.2",
  "updatedAt": "2019-05-24T09:34:57.791Z",
  "devdoc": {
    "methods": {}
  },
  "userdoc": {
    "methods": {}
  }
}